{
  "contractName": "Casino",
  "abi": [
    {
      "constant": true,
      "inputs": [],
      "name": "numberOfBets",
      "outputs": [
        {
          "name": "",
          "type": "uint256"
        }
      ],
      "payable": false,
      "stateMutability": "view",
      "type": "function"
    },
    {
      "constant": true,
      "inputs": [
        {
          "name": "",
          "type": "address"
        }
      ],
      "name": "playerInfo",
      "outputs": [
        {
          "name": "amountBet",
          "type": "uint256"
        },
        {
          "name": "numberSelected",
          "type": "uint256"
        }
      ],
      "payable": false,
      "stateMutability": "view",
      "type": "function"
    },
    {
      "constant": true,
      "inputs": [],
      "name": "owner",
      "outputs": [
        {
          "name": "",
          "type": "address"
        }
      ],
      "payable": false,
      "stateMutability": "view",
      "type": "function"
    },
    {
      "constant": true,
      "inputs": [],
      "name": "minimumBet",
      "outputs": [
        {
          "name": "",
          "type": "uint256"
        }
      ],
      "payable": false,
      "stateMutability": "view",
      "type": "function"
    },
    {
      "constant": true,
      "inputs": [],
      "name": "maxAmountOfBets",
      "outputs": [
        {
          "name": "",
          "type": "uint256"
        }
      ],
      "payable": false,
      "stateMutability": "view",
      "type": "function"
    },
    {
      "constant": true,
      "inputs": [
        {
          "name": "",
          "type": "uint256"
        }
      ],
      "name": "players",
      "outputs": [
        {
          "name": "",
          "type": "address"
        }
      ],
      "payable": false,
      "stateMutability": "view",
      "type": "function"
    },
    {
      "constant": true,
      "inputs": [],
      "name": "totalBet",
      "outputs": [
        {
          "name": "",
          "type": "uint256"
        }
      ],
      "payable": false,
      "stateMutability": "view",
      "type": "function"
    },
    {
      "inputs": [
        {
          "name": "_minimumBet",
          "type": "uint256"
        }
      ],
      "payable": false,
      "stateMutability": "nonpayable",
      "type": "constructor"
    },
    {
      "payable": true,
      "stateMutability": "payable",
      "type": "fallback"
    },
    {
      "constant": false,
      "inputs": [],
      "name": "kill",
      "outputs": [],
      "payable": false,
      "stateMutability": "nonpayable",
      "type": "function"
    },
    {
      "constant": true,
      "inputs": [
        {
          "name": "player",
          "type": "address"
        }
      ],
      "name": "checkPlayerExists",
      "outputs": [
        {
          "name": "",
          "type": "bool"
        }
      ],
      "payable": false,
      "stateMutability": "view",
      "type": "function"
    },
    {
      "constant": false,
      "inputs": [
        {
          "name": "numberSelected",
          "type": "uint256"
        }
      ],
      "name": "bet",
      "outputs": [],
      "payable": true,
      "stateMutability": "payable",
      "type": "function"
    },
    {
      "constant": false,
      "inputs": [],
      "name": "generateNumberWinner",
      "outputs": [],
      "payable": false,
      "stateMutability": "nonpayable",
      "type": "function"
    },
    {
      "constant": false,
      "inputs": [
        {
          "name": "numberWinner",
          "type": "uint256"
        }
      ],
      "name": "distributePrizes",
      "outputs": [],
      "payable": false,
      "stateMutability": "nonpayable",
      "type": "function"
    }
  ],
  "bytecode": "0x6080604052606460045534801561001557600080fd5b50604051602080610a2983398101806040528101908080519060200190929190505050336000806101000a81548173ffffffffffffffffffffffffffffffffffffffff021916908373ffffffffffffffffffffffffffffffffffffffff16021790555060008114151561008a57806001819055505b5061098f8061009a6000396000f3006080604052600436106100ba576000357c0100000000000000000000000000000000000000000000000000000000900463ffffffff1680630a50e361146100bc5780632ca8c6d3146100d35780634081d916146100fe57806341c0e1b5146101595780634b114691146101705780636ca3fc3b146101ce5780637365870b146101fb5780638da5cb5b1461021b578063c38a8afd14610272578063e08a96cd1461029d578063f71d96cb146102c8578063fe5e185314610335575b005b3480156100c857600080fd5b506100d1610360565b005b3480156100df57600080fd5b506100e8610380565b6040518082815260200191505060405180910390f35b34801561010a57600080fd5b5061013f600480360381019080803573ffffffffffffffffffffffffffffffffffffffff169060200190929190505050610386565b604051808215151515815260200191505060405180910390f35b34801561016557600080fd5b5061016e610429565b005b34801561017c57600080fd5b506101b1600480360381019080803573ffffffffffffffffffffffffffffffffffffffff1690602001909291905050506104ba565b604051808381526020018281526020019250505060405180910390f35b3480156101da57600080fd5b506101f9600480360381019080803590602001909291905050506104de565b005b6102196004803603810190808035906020019092919050505061071d565b005b34801561022757600080fd5b50610230610879565b604051808273ffffffffffffffffffffffffffffffffffffffff1673ffffffffffffffffffffffffffffffffffffffff16815260200191505060405180910390f35b34801561027e57600080fd5b5061028761089e565b6040518082815260200191505060405180910390f35b3480156102a957600080fd5b506102b26108a4565b6040518082815260200191505060405180910390f35b3480156102d457600080fd5b506102f3600480360381019080803590602001909291905050506108aa565b604051808273ffffffffffffffffffffffffffffffffffffffff1673ffffffffffffffffffffffffffffffffffffffff16815260200191505060405180910390f35b34801561034157600080fd5b5061034a6108e8565b6040518082815260200191505060405180910390f35b60006001600a4381151561037057fe5b0601905061037d816104de565b50565b60035481565b600080600090505b60058054905081101561041e578273ffffffffffffffffffffffffffffffffffffffff166005828154811015156103c157fe5b9060005260206000200160009054906101000a900473ffffffffffffffffffffffffffffffffffffffff1673ffffffffffffffffffffffffffffffffffffffff1614156104115760019150610423565b808060010191505061038e565b600091505b50919050565b6000809054906101000a900473ffffffffffffffffffffffffffffffffffffffff1673ffffffffffffffffffffffffffffffffffffffff163373ffffffffffffffffffffffffffffffffffffffff1614156104b8576000809054906101000a900473ffffffffffffffffffffffffffffffffffffffff1673ffffffffffffffffffffffffffffffffffffffff16ff5b565b60066020528060005260406000206000915090508060000154908060010154905082565b6104e66108ee565b6000806000806000809450600093505b6005805490508410156106375760058481548110151561051257fe5b9060005260206000200160009054906101000a900473ffffffffffffffffffffffffffffffffffffffff16925086600660008573ffffffffffffffffffffffffffffffffffffffff1673ffffffffffffffffffffffffffffffffffffffff1681526020019081526020016000206001015414156105d85782868660648110151561059857fe5b602002019073ffffffffffffffffffffffffffffffffffffffff16908173ffffffffffffffffffffffffffffffffffffffff168152505084806001019550505b600660008473ffffffffffffffffffffffffffffffffffffffff1673ffffffffffffffffffffffffffffffffffffffff1681526020019081526020016000206000808201600090556001820160009055505083806001019450506104f6565b60006005816106469190610912565b50606460025481151561065557fe5b049150600090505b8481101561071457600073ffffffffffffffffffffffffffffffffffffffff16868260648110151561068b57fe5b602002015173ffffffffffffffffffffffffffffffffffffffff161415156107075785816064811015156106bb57fe5b602002015173ffffffffffffffffffffffffffffffffffffffff166108fc839081150290604051600060405180830381858888f19350505050158015610705573d6000803e3d6000fd5b505b808060010191505061065d565b50505050505050565b61072633610386565b15151561073257600080fd5b600181101580156107445750600a8111155b151561074f57600080fd5b600154341015151561076057600080fd5b34600660003373ffffffffffffffffffffffffffffffffffffffff1673ffffffffffffffffffffffffffffffffffffffff1681526020019081526020016000206000018190555080600660003373ffffffffffffffffffffffffffffffffffffffff1673ffffffffffffffffffffffffffffffffffffffff1681526020019081526020016000206001018190555060036000815480929190600101919050555060053390806001815401808255809150509060018203906000526020600020016000909192909190916101000a81548173ffffffffffffffffffffffffffffffffffffffff021916908373ffffffffffffffffffffffffffffffffffffffff160217905550503460026000828254019250508190555050565b6000809054906101000a900473ffffffffffffffffffffffffffffffffffffffff1681565b60015481565b60045481565b6005818154811015156108b957fe5b906000526020600020016000915054906101000a900473ffffffffffffffffffffffffffffffffffffffff1681565b60025481565b610c8060405190810160405280606490602082028038833980820191505090505090565b81548183558181111561093957818360005260206000209182019101610938919061093e565b5b505050565b61096091905b8082111561095c576000816000905550600101610944565b5090565b905600a165627a7a723058205dca8c9b07f16c5d12a6ac64335275c68edb8aa3fbbd5a4ca13588de516f76e60029",
  "source": "pragma solidity 0.4.24;\ncontract Casino {\n   address public owner;\n   uint256 public minimumBet;\n   uint256 public totalBet;\n   uint256 public numberOfBets;\n   uint256 public maxAmountOfBets = 100;\n   address[] public players;\n   struct Player {\n      uint256 amountBet;\n      uint256 numberSelected;\n   }\n   // The address of the player and => the user info   \n   mapping(address => Player) public playerInfo;\n   function() public payable {}\n   function Casino(uint256 _minimumBet) public {\n      owner = msg.sender;\n      if(_minimumBet != 0 ) minimumBet = _minimumBet;\n   }\n   function kill() public {\n      if(msg.sender == owner) selfdestruct(owner);\n   }\n   function checkPlayerExists(address player) public constant returns(bool){\n      for(uint256 i = 0; i < players.length; i++){\n         if(players[i] == player) return true;\n      }\n      return false;\n   }\n   // To bet for a number between 1 and 10 both inclusive\n   function bet(uint256 numberSelected) public payable {\n      require(!checkPlayerExists(msg.sender));\n      require(numberSelected >= 1 && numberSelected <= 10);\n      require(msg.value >= minimumBet);\n      playerInfo[msg.sender].amountBet = msg.value;\n      playerInfo[msg.sender].numberSelected = numberSelected;\n      numberOfBets++;\n      players.push(msg.sender);\n      totalBet += msg.value;\n   }\n   // Generates a number between 1 and 10 that will be the winner\n   function generateNumberWinner() public {\n      uint256 numberGenerated = block.number % 10 + 1; // This isn't secure\n      distributePrizes(numberGenerated);\n   }\n   // Sends the corresponding ether to each winner depending on the total bets\n   function distributePrizes(uint256 numberWinner) public {\n      address[100] memory winners; // We have to create a temporary in memory array with fixed size\n      uint256 count = 0; // This is the count for the array of winners\n      for(uint256 i = 0; i < players.length; i++){\n         address playerAddress = players[i];\n         if(playerInfo[playerAddress].numberSelected == numberWinner){\n            winners[count] = playerAddress;\n            count++;\n         }\n         delete playerInfo[playerAddress]; // Delete all the players\n      }\n      players.length = 0; // Delete all the players array\n      uint256 winnerEtherAmount = totalBet / winners.length; // How much each winner gets\n      for(uint256 j = 0; j < count; j++){\n         if(winners[j] != address(0)) // Check that the address in this fixed array is not empty\n         winners[j].transfer(winnerEtherAmount);\n      }\n   }\n}\n",
  "sourcePath": "/home/hugo/Documents/casino-ethereum/contracts/Casino.sol",
  "compiler": {
    "name": "solc",
    "version": "0.4.24+commit.e67f0147.Emscripten.clang"
  },
  "schemaVersion": "2.0.1",
  "updatedAt": "2018-07-02T10:16:33.765Z"
}